:020000000C945E
:1000020051000C9400000C9400000C9410010C940C
:1000120000000C9400000C9400000C9400000C945E
:1000220000000C9449020C9400000C9400000C9403
:1000320000000C9405020C9400000C9400000C9437
:1000420000000C9400000C9400000C9400000C942E
:1000520000000001030700001027E80364000A0003
:100062000100001000011000010000000001030760
:100072000000000000000000000001002D4E414E73
:1000820000494E460000010002006C0004006002BC
:100092006E0009000400720001008C047C00000064
:1000A200F894EE27ECBBF1E0F5BFE5BFF8E1F1BD56
:1000B200E1BD8DE0A2E0BB27ED938A95E9F780E0F0
:1000C20098E0A0E6ED930197E9F7E8E8F0E0859182
:1000D2009591009761F0A591B59105901590BF019A
:1000E200F00105900D920197E1F7FB01F0CFEFE5EA
:1000F200EDBFE8E0EEBFC0E6D2E00C945F021A93D7
:100102000A93C498EA81EA930E944F034E2EEA8131
:10011200F0E0E07EF070309711F5EA81EF71EA309D
:1001220041F0EA81EF71EB3021F0EA81EF71E031C9
:1001320091F404E010E011236AF0F801E05AFD4F57
:10014200FF93EF930E945603AF91BF91EC9301503E
:100152001040F1CF03C00E9456035E2E58C0E03219
:10016200A0E0FA07F9F4EA81EF71EA3041F0EA819E
:10017200EF71EB3021F0EA81EF71E03179F404E0C4
:1001820010E0112352F0F801EC5AFF4FE491EA9388
:100192000E944F0301501040F4CF03C05A920E94B4
:1001A2004F0335C0E036A0E0FA07E1F4EA81E170DE
:1001B200E130A1F4009165021127002E012A69F0B5
:1001C200F801EB59FD4FFF93EF930E945603AF9155
:1001D200BF91EC9301501040F0CF03C00E94560330
:1001E2005E2E15C0E03AA0E0FA0789F4009165029C
:1001F2001127002E012A59F0A5E6B2E0A00FB11F87
:10020200EC91EA930E944F0301501040F2CFC49A3E
:1002120081E38A95F1F719810881239608950E9456
:100222005A03B89AC09B02C0C09801C0C09A662007
:10023200D9F4EFEFEA9363DF45FE13C0E2E07E2ECE
:10024200E7E1EA935CDF50FC0BC00E94680328F0F0
:100252000E946F03E3E07E2E03C0E2EEEA934FDFDB
:1002620002C0E4E07E2E0BC00E94680320F4E2EE9E
:10027200EA9345DF04C00E946F03E1E07E2EEEE7C1
:100282005E2EE7E2EA933BDFE1EEEA9338DF08C154
:100292001A930A9300E010E0EC81E093650200E01B
:1002A20010E0EC81D801F0E0AE17BF077CF4F80152
:1002B200EA59FD4F0F01F801AA81BB81AE0FBF1FA2
:1002C200EC91D001EC930F5F1F4FEBCF20FE38C0B3
:1002D200E89420F8A0916402E8E5F0E0E491EA17DE
:1002E200E1F4A0916302E7E5F0E0E491EA17A9F4F2
:1002F200A0916202E6E5F0E0E491EA1771F4A091C0
:100302006102E5E5F0E0E491EA1739F4E4E5F0E0B2
:10031200E491A0916002EA1709F010C0E1EEEA93BD
:10032200EEDEE0EAEA93EBDE0E947503C39A82E610
:100332008A95F1F7C3980E94750302C0E5E07E2E0C
:10034200772019F0689420F877241981088125967E
:100352000895E0E0E8BBE0EBE7BBC49AC398EBB7D3
:10036200E062EBBFE0E0E5BFE4BFE0E2EABFE0E568
:10037200EDB9E0E0EEB97894EEE6F0E00E947B039E
:100382006880E1E05E2EE1E20E947F03E2E2EA930E
:10039200B6DEE3E05E2EE3E2EA93B1DEEFE25E2E4A
:1003A200E4E20E947F03E5E2EA93A9DEE6E05E2E44
:1003B200E6E2EA93A4DEEAE2EA93A1DEE0E30E9447
:1003C2007F03ECE3EA939BDEE7E05E2EEDE3EA9344
:1003D20096DEE881E03061F4EEE45E2EE0E2EA933C
:1003E2008EDEE4E6F0E00E947B03689420F80AC007
:1003F200EFE35E2EE0E2EA9382DEE5E0F0E00E94C7
:100402007B03C39A0C9454030E945A031A930A93CF
:100412001BB10CB1E12FEC7169F5013410F0073416
:10042200A0F0003310F00A3380F0013610F00636E7
:1004320060F00A3251F00F3241F00E3231F00C37D7
:1004420021F0043711F00237A9F4A6E8B4E0ED91E7
:10045200FD913196FE93EE933197EA57FD4F00835B
:100462000A3229F4E0E0E0938604E09387040F3235
:1004720009F4ABD00E948503A030E2E0BE0729F464
:10048200E0E0E0938604E09387040991199108C0A3
:100492000E945A03EC2DC394E23011F4A4D0F3D09D
:1004A200E991EFBFF991E991B991A9919991899156
:1004B20079916991F990199009901895E0E0EBBB58
:1004C200EABBE8BBE7BBE5BBE4BBE2BBE1BBE3BF26
:1004D200E2BFECBFEFBD0E948A03E0E0E2BDE5BDF2
:1004E200E4BDE3BDE5BFE4BFE9BFEBB9E8E9EAB9C2
:1004F200E6E0E0BDE0E0E0BDEFE5E9B9E0E8E8B95B
:10050200E0E0E0BFE6B9EDB9E6BFA39AA49A789419
:10051200E8EEF3E00E947B03E8EEF3E04F01DD2416
:10052200E0E0EA9316DF0E9495030E9499030E947D
:10053200A103E0E4FFE10E947B030E9495030E9475
:10054200A9030E949903EFE2EA93A3D094D0E09129
:100552008604F09187048E169F06A8F50E948503F3
:100562005F9758F4AC9B02C0AC9801C0AC9AE09182
:100572008604EA93E6E8F2E021C00E9485035F97D1
:1005820008F1EEE1F0E0EA15FB0570F4EA93F401FC
:100592003197EA57FD4FFA93EA937ADEF5017E9797
:1005A2005F01F4017E964F01EEE1F0E0AE16BF0668
:1005B20048F4AA92F4013197EA57FD4FFA93EA936D
:1005C20067DE11D0C4CFC3CFFFCF5DD0AB9B02C0DB
:1005D200AB9801C0AB9AE1E0F0E04F01A090860435
:1005E200B090870408954FD0E8EEF3E04F01E4E6BF
:1005F200F0E00E947B03E4E0ED15E1F00E94950338
:100602000E94A903E4E7EA9344D0DD2011F4E2E674
:100612000EC0E1E0ED1511F4E3E609C0E2E0ED15EC
:1006220011F4E4E604C0E3E0ED1519F4E5E6EA931B
:1006320030D017C0E4E0ED15A1F4E2E3F0E00E944F
:100642007B030E9495030E9499030E94A103E0E7A5
:10065200F7E10E947B030E9495030E94A9030E9476
:100662009903EFE2EA9315D0E4E0DE1610F4D39496
:1006720001C0DD240895E0E0EFBDE5E00E948A03B9
:10068200E4E0E9BF0895E0E0F0E0FDBDECBDCC247C
:1006920008955D9BFECFE881ECB905C0E881EFB912
:1006A200779BFECFEFB121960895EFEFEA930C947A
:1006B2004F030A921A92FA926A937A938A939A93BE
:1006C200AA93BA93EA93FA93EFB7EA930895E0E60E
:1006D200EA930E948000E0E2E515089550926502D7
:1006E200E1E6EA930C948000EAE0F0E0FA93EA9300
:1006F2000C94AD03FA93EA930C94AD03EA930E942F
:100702008000E1E05E2E0895A0918604B0918704F6
:100712000895EEBDE0E0EDBDECBDE7BDE6BDEBBD8D
:10072200EABDE9BDE8BD0895EAE2EA930C944A0302
:10073200E4E7EA930E944A03E1E6EA930C944A034F
:10074200ECE6EA930E944A03EFE2EA930C944A032E
:10075200E2E7EA930C944A03E991F991309639F071
:1007620086E69EE00197F1F7A8953197C9F70895BB
:00000001FF
