:0E0000000C9445000C9400000C9400000C942D
:10000E0000000C9400000C9400000C9400000C9462
:10001E0000000C9400000C9400000C9400000C9452
:10002E0000000C9400000C9474000C9400000C94CE
:10003E0000000C9400000C9400000C9400000C9432
:10004E0000000C9400001027E80364000A00010071
:10005E0000100001100001006400C8009001200390
:10006E00F8FFFCFFFEFFFFFF01002D4E414E004941
:10007E004E4600000100090376000000F894EE27BA
:10008E00ECBBF1E0F5BFE5BFF8E1F1BDE1BD8DE000
:10009E00A2E0BB27ED938A95E9F780E098E0A0E611
:1000AE00ED930197E9F7E2E8F0E0859195910097DD
:1000BE0061F0A591B59105901590BF01F0010590E5
:1000CE000D920197E1F7FB01F0CFEFE5EDBFE8E010
:1000DE00EEBFC0E6D2E00C94F8000A921A92FA92A1
:1000EE006A937A938A939A93AA93BA93EA93FA931A
:1000FE00EFB7EA931A930A931BB10CB1E12FEC718F
:10010E0031F4E92D9394F0E0E750FD4F00830A326D
:10011E0009F499240F3211F00C94E400A091F90225
:10012E00E4E70E947E04E1E60E948404ECE60E946D
:10013E00F507E02109F088D0A091F902E2E70E94CC
:10014E007E04E3E60E9484040E948A0409F0CAD069
:10015E00A091F902EFE60E947E04E6E60E94840476
:10016E000E948A0409F0AFD1A091F902E2E70E9441
:10017E007E04E4E70E9484040E948A0409F0D6D02B
:10018E00A091F902E3E70E947E04E5E60E94840452
:10019E00E4E70E94F507E02109F0A6D1A091F9024B
:1001AE00E7E70E947E04E4E60E948404E2E70E94F0
:1001BE00F507E02111F0E8E0E1BDE0E1E91509F411
:1001CE00992409911991E991EFBFF991E991B991AA
:1001DE00A9919991899179916991F99019900990C4
:1001EE001895E0E0EBBBEABBE8BBE7BBE5BBE4BBC5
:1001FE00E2BBE1BBE3BFE2BFECBFEFBDEEBDEDBDC9
:10020E00ECBDE7BDE6BDEBBDEABDE9BDE8BDE2BDB7
:10021E00E5BDE4BDE3BDE5BFE4BFE9BF0E948F04C9
:10022E0052D1E0E8E8B9E0E0E0BFE6B9EDB9E1B5FA
:10023E00E861E1BDE0E0E1BDE6BF0E945005E2E607
:10024E004E2E7894FFCFFFCF0E949A04552011F4C2
:10025E000C9478017724751410F00C9478010E9498
:10026E00A4040E94A203E093F502F093F6026093B9
:10027E00F7027093F8020E944B08E2E0EA93E9EE6F
:10028E00F2E0FA93EA930E9495020E94AD04EF54B5
:10029E00FD4FA091E902A0830E94AD04EE54FD4FE4
:1002AE00A091EA02A0830E94AD04ED54FD4FA091EF
:1002BE00EB02A0830E94AD04EC54FD4FA091EC0222
:1002CE00A0830E94AD04EB54FD4FA091ED02A083DC
:1002DE000E94AD04EA54FD4FA091EE02A0837394E8
:1002EE00BACF08950E949A04EAE2EA9311D1E2E7A6
:1002FE00EA930ED1E0E0E515A8F46624651490F4B7
:10030E007724E9E07E1660F4E62DA9E0EA9FF0017D
:10031E000E94B204EA935ED00E94BA047394F1CFA5
:10032E006394ECCFEFE2EA93F3D008951A93D8D00A
:10033E000E94BE040E949A04EAE2EA93E9D0E4E73E
:10034E00EA93E6D04A92E4D0E52D0E94C4040E94BE
:10035E00BA0410E0151580F5E2E07E2EE8E07E1678
:10036E0058F4A9E01A9FF0010E94B204F0E0FA934B
:10037E00EA9373D07394F2CF77240E94C804DF01FE
:10038E00EE27A70DBE1FAC91AE3229F00E94C80415
:10039E000E94CE04F2CF0E94C8040E94CE040E9496
:1003AE00C804DF01EE27A70DBE1FEC91EA93B0D073
:1003BE000E94BA041F5FCECFE5E6E41519F4ECE710
:1003CE00EA93A6D0EFE2EA93A3D00E94BE047BD0BC
:1003DE00199108951A93A981A93010F4E98137C0B3
:1003EE00A981E9E00E94FF070E2EE3E60E94FA07BC
:1003FE00E02139F00E94D804EAE0F0E00E941C08E7
:10040E001AC0A981A43630F10E94D804E4E6F0E0C7
:10041E000E941C081E2FE12F0E94C4040E94D804C3
:10042E00EAE0F0E00E941C081E2FA12FBB27EAE095
:10043E00F0E00E9421081E2FE12F0E94C404A98122
:10044E00BB27EAE0F0E00E9421081E2FE12FE05DBD
:10045E00EA935ED01881229608951A930A93EA8140
:10046E00FB810E94E7078F010050104020F00A30F8
:10047E00E0E01E0708F003C0E02FE05D06C00A3082
:10048E00E0E01E0720F0E02FE95CEA9341D0EA811C
:10049E00FB81EF70F0708F010050104020F00A3099
:1004AE00E0E01E0708F003C0E02FE05D06C00A3052
:1004BE00E0E01E0720F0E02FE95CEA9329D01981D5
:1004CE0008810C947C04E0E0EBB9E0E9EAB9E6E0DF
:1004DE00E0BDE0E0E0BDEFE5E9B9899891980895B7
:1004EE000E948F04899A08950E949A04552079F0EB
:1004FE007724751460F40E94A404ECEEEA93E8E706
:10050E00EA93E1E0EA930E94E4037394F2CF089534
:10051E005D9BFECFE881ECB9219608952497E0E02B
:10052E00E883E983EA83EFE3EB831A930A93EB857F
:10053E00FC85EF3FAFEFFA0739F40E94DB04E8E7E2
:10054E00F0E00E94E004A7C0EF3FAFE7FA0739F4EE
:10055E000E94DB04E9E7F0E00E94E0049CC0AC8559
:10056E00AA2362F4E985FA856B857C850E942906AB
:10057E000E94E4040E94E904EDE2EC93A885A73002
:10058E0010F0E6E0E8871885E12F1150E03039F0E1
:10059E000E94F0040E94F5040E94FC04F5CF0E9414
:1005AE0001050E94CF060E94E40410E0E0E0F0E0B6
:1005BE0060E87FE30E94FC040E9401050E94B207DE
:1005CE0088F00E94F0040E940A050E94FC041F5F3E
:1005DE00173238F00E94DB04EDE7F0E00E94E004F1
:1005EE005AC0EACF103029F40E94E904E0E3EC93FC
:1005FE002AC0E12F1150E03031F10E94F0040E9428
:10060E00F504A0E0B0E080E09FE30E94CF060E94D8
:10061E004B080E946A040E94FC040E9401050E947D
:10062E006D070E945C060E2F0E94E9040E941105C0
:10063E000E94F0040E9417050E941F070E941C05CD
:10064E000E942105D6CFE885E03009F10E94E90429
:10065E00EEE2EC93E885E150E887EF5FC1F00E948F
:10066E001C050E940A050E94E404E985FA856B8543
:10067E007C850E945C060E2F0E94E9040E941105E3
:10068E000E941C050E9417050E942105E3CFAE8132
:10069E00BF81E0E0EC93198108812D9608951A939D
:1006AE000E945005E03011F4E0E084C0E981FA8147
:1006BE00309789F0E5E5EA930E94990510E0A9814B
:1006CE00BA81ED91A983BA83EA930E9499051F5FBF
:1006DE001830A8F304C0ECECEA930E949905E1E00F
:1006EE0069C00E945D08EC81FD810E94260511F40F
:1006FE00E0E01DC0EEEBEA930E94990510E020E6C3
:10070E0032E03F932F932F5F3F4F0E949405AF919E
:10071E00BF91EC931F5F1930A0F3E0E6F2E0FA937D
:10072E00EA93E9E0EA930E9413060E9404080E94ED
:10073E006208269608951A930E942C0519F40E94B9
:10074E00340538C0A0916402B0E0E5E00E94DE07F7
:10075E00E3701E2FE981FA810E94260519F40E948A
:10076E00340528C0E4E4EA930E949905E12FA6E639
:10077E00B0E00E943905FA93EA930E9444050E9464
:10078E002C0519F40E94340515C00E945005E12F66
:10079E00AEE6B0E00E943905A0916002B091610210
:1007AE00EA23FB230E941705A0E0B0E080E89DE35A
:1007BE000E941F07188123960895EB81FC810E94E9
:1007CE00260511F4E0E043C0E881E295E07FEE0FEC
:1007DE00EF61E883EEE4EA930E949905E981EA93DA
:1007EE000E949905EA81EA930E949905E881EA93AD
:1007FE000E949905EB81FC81FA93EA9372DFE03057
:10080E0011F4E0E024C0A0916302EA81EA1751F4EA
:10081E00A0916202E981EA1729F4A0916402E881AD
:10082E00EA1711F0E0E013C0EB81FC810E9426056F
:10083E0011F4E0E00CC0E8E4EA930E949905EFE0C1
:10084E00F0E0FA93EA930E9444050E945005259623
:10085E000895E991F991A991B991CD0105900D9263
:10086E000020E1F7FC0108957B816A81F981E8811E
:10087E0077FB770F67FD7160972F9E5781F078F0A9
:10088E00983190F4AA27BB27882708948795B795A7
:10089E00A7959A95D1F7EA23FB23682305C0E89420
:1008AE007727EE27FF2766276F77769508F460681F
:1008BE0077F9A991B99189919991EA17FB07680780
:1008CE00790797FB0895D6D00E944B080E943B04EF
:1008DE000E94460811F4CED008C0EEF7CBD0A0E0AF
:1008EE00B0E080E89FE30E94C806249608950E9417
:1008FE00F5070E2EA091FA0208950E94F5070E221A
:10090E00A091FB020895E42D0E94F507E0210895C1
:10091E00E0E0EBB9E8E9EAB9E6E0E0BDE0E0E0BD31
:10092E00EFE5E9B90895E0EFEA93E9E6F2E0FA932C
:10093E00EA930E94A3055E2E0895E72DA9E0EA9F93
:10094E00F001E759FD4FFA93EA930895E72DA7E0DA
:10095E00EA9FF0010895E759FD4FDF01EE27A70D3D
:10096E00BE1FEC910895ECE2EA930C948F02E1E045
:10097E00F0E0FA93EA930C944405E05DEA930C944C
:10098E008F02A7E01A9FF001EF54FD4F0895DF018B
:10099E00E72D7394F0E0AE0FBF1FEC91EA930C9429
:1009AE008F02A981B0E00895EE81FF81FA93EA9358
:1009BE000895FA93EA930C943004E987FA876B87CB
:1009CE007C870895AE81BF811196AE83BF83119748
:1009DE000895AA81BB818C819D810895EDECFCEC7C
:1009EE006CEC7DE30E941F070895EA83FB836C8302
:1009FE007D830895EA81FB816C817D81A985BA850D
:100A0E008B859C850895E0E0F0E060E271E40E9441
:100A1E001F070895E02FE05DEC93E02FF0E00895BE
:100A2E000E94F0070E9495060895A985BA858B85C8
:100A3E009C8508950E9450080E94C806BECFFA9366
:100A4E00EA930E945603E0300895E981FA81FA9301
:100A5E00EA930E947803E0300895E0E0FCE36CE155
:100A6E0076EC0895F0E0EE0FFF1FEA0FFB1F0E94D9
:100A7E003D0808950E9441080895E991F991309634
:100A8E0039F086E69EE00197F1F7A8953197C9F700
:100A9E000895EE2792988A9A89EE96E00197F1F7DB
:100AAE008A9885E48A95F1F7829B089588E191E012
:100ABE000197F1F7829BE1E08EE995E00197F1F75E
:100ACE0008958A9A8AE08A95F1F78A9886E38A953C
:100ADE00F1F7889482990894E79587E291E001975F
:100AEE00F1F70895E8948A9A8AE08A95F1F770FDF5
:100AFE008A9880E48A95F1F7829903C070FF03C04B
:100B0E00089570FF089584E191E00197F1F78A98B6
:100B1E0089E18A95F1F76894089568E0D2DF6A95C5
:100B2E00E9F7089568E07991EE27DCDF26F47795F2
:100B3E006A95D9F7E39508954F935F93112444274F
:100B4E00A881B981012C1124A4DFEE23F9F0EA81EA
:100B5E00EA93E8DF51E0501598F4B3DFE7FD08C0E3
:100B6E00B0DFE7FD06C03FD0892319F4152E01C072
:100B7E00A8DF39D0892370E009F071E0B3DF1EC021
:100B8E00A0DFE7FF0BC09DDFE7FF05C0E42F5F91FD
:100B9E004F9123960895689437D0EFCF92DFE7FFF9
:100BAE0001C003C0501531F0152EE8942DD07727D3
:100BBE0099DF04C0689428D071E094DF53955134C6
:100BCE0054F27FDFEE1FEE1FE1701896EC9318972C
:100BDE0043951120D9F259E0EC911996EC931897A0
:100BEE005A95D1F7AFCFE52FEA956E2FE695E6959C
:100BFE00E695FF27EA0FFB1F808191E0677019F0E1
:100C0E00990F6A95FCCF0895EEDF1EF0909589231B
:100C1E0001C0892B80830895EE278881882381F077
:100C2E0068E1A981BA8198E0FD917F2F7E277795A3
:100C3E0008F4E627E795F6959A95B9F78A9599F708
:100C4E002396089530976040704009F070580895CB
:100C5E00552342F4503811F4E0FF04C03196691F59
:100C6E00791F6BF050E8572711F45F93CFC05F3FA9
:100C7E0031F0660F000C57956795752F08955F93A9
:100C8E0000200AF0CFC0C8C050E8192E1522880FD8
:100C9E00991F9527550F879550E8072E0522660F49
:100CAE00771F7527550F67950895689401C0E894CE
:100CBE005F93F2DF703818F07F3F08F4A7C056E15B
:100CCE00571BAAF4519558300EF4593030F0EFEF0F
:100CDE00FFEF6FEF7FE777F91AC077275523B9F04B
:100CEE00EE0FFF1F661F771F5A95D1F710C077279B
:100CFE00583028F0EF2FF62F672F5850F9CF552385
:100D0E0031F076956795F795E7955A95D1F70020CE
:100D1E000AF445D15F910895689401C0E894309724
:100D2E0060407040B1F0002426F0772312F4009456
:100D3E0036D1172E7EE1112032F07A95EE0FFF1F7D
:100D4E00661F111CF9CFEF2FF62F612D5F938ADFEF
:100D5E005F9108954F93AF01FD01DA01AB01BC0124
:100D6E00CA01402D012C142E4F910895EA0FFB1F3E
:100D7E00681F0895E095F0956095EF5FFF4F6F4FF8
:100D8E0008955F9381DF903871F150E8152604C005
:100D9E005F937ADF903839F1703821F1572F591B54
:100DAE002BF112F4D7DFFACF583118F0AA27BB2750
:100DBE008827583028F0AB2FB82F88275850F9CFF6
:100DCE00552329F08695B795A7955A95D9F7502DA5
:100DDE00512572F0CBDF38F46795F795E79573954B
:100DEE0013F420C0B7DF3EDF5F910895D8F7FBCF35
:100DFE00EA1BFB0B680B51F010F40094BBDF66236B
:100E0E0092F3EE0FFF1F661F7A95CBF7EE27FF27A3
:100E1E00662777275F910895EFEFFFEF6FE77FEF7C
:100E2E005F910895EFEFFFEF6FE77FE75F91089512
:100E3E005F932ADF703851F3903841F30124089400
:100E4E00791F23F41CF300203AF3ECCF0F921F937B
:100E5E002F933F934F93112722279927689FA00125
:100E6E008F9F302D410D591F6B9F300D411D591F06
:100E7E008E9F27D0BF9F25D06A9F23D0BE9F1DD0A7
:100E8E00AF9F1BD0AE9F110D291F391F491F591F30
:100E9E00E32FF42F652F522F4F913F912F911F91DA
:100EAE000F9066232AF0550FEE1FFF1F661F02C01C
:100EBE0073954BF2CDDE5F910895100D211D391FF4
:100ECE0002C0200D311D491F591F08955F93DCDEAE
:100EDE00703821F411200AF49FCFA4CF903809F472
:100EEE0095CF01240894970B1BF4D4F30020F3CF75
:100EFE00792F1F932F933F934F931124112722275E
:100F0E0033274427552790E2AE17BF0786074107C0
:100F1E0030F0AE1BBF0B860B410B089401C08894BA
:100F2E00551F221F331F111CAA1FBB1F881F441FD2
:100F3E009A9551F7F901612D4F913F912F911F9184
:100F4E00662332F0550FEE1FFF1F661F7A9543F290
:100F5E007FDE5F91089599239AF0772342F09717D9
:100F6E0048F029F4AE17BF07860720F031F09894A9
:100F7E0088940895989408940895189488940895E0
:100F8E007723C2F7971798F3A9F7EA17FB076807B5
:100F9E0088F399F3ECCFF195E195F0400895F09533
:100FAE0060957095E195FF4F6F4F7F4F0895EE233B
:100FBE000E2EFD0121F0F595E7950A94E1F70895BF
:100FCE00F695E795F695E795F695E795F695E795F7
:100FDE0008956F2F660F660B762F0895EA17E1E0DE
:100FEE0009F0EE270895AE17E1E008F0EE27089518
:100FFE00EA17E1E008F0EE270895EE23E1E009F0AC
:10100E00EE2708950024112490E1AA0FBB1F001CA7
:10101E00111C0E1A1F0A18F40E0E1F1E01C0A1601D
:10102E009A9599F7FD01D001089512D0EBDF0EF4D9
:10103E00B2DF0895E894B7FF04C0A095B09511965D
:10104E006894F7FDA8DFDEDFFD010EF4A4DF08953E
:10105E00E894F7FF02C09FDF6894B7FF06C0A09523
:10106E00B095119600F8039400FA08950590F49146
:10107E00E02D0895E881F9816A817B810895E883E6
:10108E00F9836A837B8308957A936A93FA93EA933A
:10109E000895182E862F612D192E972F712D1B2E28
:1010AE00BF2FF12D1A2EAE2FE12D08953A932A93CC
:1010BE001A930A9308953B812A8119810881089514
:00000001FF
