:100000000C9445000C9400000C9400000C94040126
:100010000C9400000C9400000C9400000C94000060
:100020000C9400000C9400000C9400000C94000050
:100030000C9400000C94F7010C9400000C94000048
:100040000C9400000C9400000C9400000C94000030
:100050000C9400000001030700001027E80364006F
:100060000A00010000100001100001000000000162
:10007000030700000000010002006C0004006002A1
:100080006E000400040072000000F894EE27ECBB40
:10009000F1E0F5BFE5BFF8E1F1BDE1BD8DE0A2E023
:1000A000BB27ED938A95E9F780E098E0A0E6ED9311
:1000B0000197E9F7E6E7F0E085919591009761F007
:1000C000A591B59105901590BF01F00105900D9295
:1000D0000197E1F7FB01F0CFEFE5EDBFE8E0EEBF00
:1000E000C0E6D2E00C9445021A930A93C498EA81C0
:1000F000EA930E94CE024E2EEA81F0E0E07EF0709C
:10010000309711F5EA81EF71EA3041F0EA81EF7141
:10011000EB3021F0EA81EF71E03191F404E010E07E
:1001200011236AF0F801E05AFD4FFF93EF930E940C
:10013000D502AF91BF91EC9301501040F1CF03C0B5
:100140000E94D5025E2E58C0E032A0E0FA07F9F412
:10015000EA81EF71EA3041F0EA81EF71EB3021F092
:10016000EA81EF71E03179F404E010E0112352F0FC
:10017000F801EC5AFF4FE491EA930E94CE0201503D
:100180001040F4CF03C05A920E94CE0235C0E03630
:10019000A0E0FA07E1F4EA81E170E130A1F4009116
:1001A00065021127002E012A69F0F801EB59FD4F75
:1001B000FF93EF930E94D502AF91BF91EC93015052
:1001C0001040F0CF03C00E94D5025E2E15C0E03A69
:1001D000A0E0FA0789F4009165021127002E012A98
:1001E00059F0A5E6B2E0A00FB11FEC91EA930E948E
:1001F000CE0201501040F2CFC49A81E38A95F1F704
:10020000198108810C94CC020E94D902B89AC09B33
:1002100002C0C09801C0C09A6620D9F4EFEFEA93FB
:1002200063DF45FE13C0E2E07E2EE7E1EA935CDF88
:1002300050FC0BC00E94E70228F00E94EE02E3E0AF
:100240007E2E03C0E2EEEA934FDF02C0E4E07E2E92
:100250000BC00E94E70220F4E2EEEA9345DF04C0FF
:100260000E94EE02E1E07E2EEEE75E2EE7E2EA93E8
:100270003BDFE1EEEA9338DFFAC01A930A9300E01D
:1002800010E0EC81E093650200E010E0EC810E9458
:10029000F4027CF4F801EA59FD4F0F01F801AA813C
:1002A000BB81AE0FBF1FEC91D001EC930F5F1F4FCE
:1002B000EDCF20FE38C0E89420F8A0916402E8E574
:1002C000F0E0E491EA17E1F4A0916302E7E5F0E0E1
:1002D000E491EA17A9F4A0916202E6E5F0E0E49166
:1002E000EA1771F4A0916102E5E5F0E0E491EA1704
:1002F00039F4E4E5F0E0E491A0916002EA1709F036
:1003000010C0E1EEEA93F0DEE0EAEA93EDDE0E944F
:10031000F902C39A82E68A95F1F7C3980E94F9021E
:1003200002C0E5E07E2E772019F0689420F877244B
:100330001981088125960895E0E0E8BBE0EBE7BB72
:10034000C49AC398EBB7E062EBBFE0E0E5BFE4BF5F
:10035000E0E2EABFE0E5EDB9E0E0EEB97894EEE680
:10036000F0E00E94FF026880E1E05E2EE1E20E9480
:100370000303E2E2EA93B8DEE3E05E2EE3E2EA930F
:10038000B3DEEFE25E2EE4E20E940303E5E2EA93CD
:10039000ABDEE6E05E2EE6E2EA93A6DEEAE2EA9370
:1003A000A3DEE0E30E940303ECE3EA939DDEE7E0D3
:1003B0005E2EEDE3EA9398DEE881E03061F4EEE44E
:1003C0005E2EE0E2EA9390DEE4E6F0E00E94FF02B7
:1003D000689420F80AC0EFE35E2EE0E2EA9384DE40
:1003E000E5E0F0E00E94FF02C39A0C94D3020E9461
:1003F000D9021A930A931BB10CB1E12FEC71A9F544
:10040000E92D9394F0E0EA57FD4F00830A3209F496
:1004100099240F32F9F4A0918602E2E70E941B03AF
:100420000E2EA0918702E4E70E941B030E22A091EA
:100430008802E1E60E941B03E02161F0E6E8F2E0B9
:10044000FA93EA930E94BC02D89B02C0D89801C0DC
:10045000D89A7BD0E8E0E91509F49924B394E8E050
:10046000EB1519F4BB24689421F809911991E991CD
:10047000EFBFF991E991B991A991999189917991F8
:100480006991F990199009901895E0E0EBBBE7E0CD
:10049000EABBE0E0E8BBE7BBE5BBE4BBE2BBE1BB3A
:1004A000E3BFE2BFECBFEFBDEEBDEDBDECBDE7BD10
:1004B000E6BDEBBDEABDE9BDE8BDE2BDE5BDE4BD1D
:1004C000E3BDE5BFE4BFE9BFEBB9E8E9EAB9E6E0BF
:1004D000E0BDE0E0E0BDEFE2E9B9E0E8E8B9E0E086
:1004E000E0BFE6B9EDB9E6BF7894CC24DD24E1E0C5
:1004F000EA9322DFD09AD29AD89AE1E0E71539F44C
:10050000772407D0D99B02C0D99801C0D99AF5CFDA
:10051000FFCF1A930A9300E010E0E09165020E9479
:10052000F40248F4F801EA59FD4FE081EA931FD044
:100530000F5F1F4FF2CFDA9B02C0DA9801C0DA9A40
:10054000CC24DD24099119910895E0E00E9409036B
:10055000E3E0EA93E6E8F2E0FA93EA938EDEE4E67B
:10056000F0E00E94FF02E1E00E94090308955D9B14
:10057000FECFE881ECB917C01A93A981BA81ED9139
:10058000A983BA831E2FE03019F01A93F0DFF5CF5C
:10059000EAE0EA93ECDF188123960895E881EFB949
:1005A000779BFECFEFB121960895EFEFEA930C947D
:1005B000CE020A921A92FA926A937A938A939A9343
:1005C000AA93BA93EA93FA93EFB7EA930895E0E611
:1005D000EA930E947400E0E2E515089550926502E6
:1005E000E1E6EA930C947400D801F0E0AE17BF077F
:1005F0000895EAE0F0E0FA93EA930C940F03FA937B
:10060000EA930C940F03EA930E947400E1E05E2EDB
:100610000895EA930E949C01E8EEF3E0F0CFE9919F
:10062000F991309639F086E69EE00197F1F7A895AA
:100630003197C9F70895EA17E1E009F0EE27089528
:00000001FF
